{
  "contractName": "CoffeeShop",
  "abi": [
    {
      "inputs": [
        {
          "internalType": "uint256",
          "name": "",
          "type": "uint256"
        }
      ],
      "name": "orders",
      "outputs": [
        {
          "internalType": "address",
          "name": "customer",
          "type": "address"
        },
        {
          "internalType": "string",
          "name": "coffeeName",
          "type": "string"
        },
        {
          "internalType": "string",
          "name": "image",
          "type": "string"
        },
        {
          "internalType": "uint256",
          "name": "price",
          "type": "uint256"
        },
        {
          "internalType": "uint256",
          "name": "quantity",
          "type": "uint256"
        }
      ],
      "stateMutability": "view",
      "type": "function",
      "constant": true
    },
    {
      "inputs": [],
      "name": "totalFunds",
      "outputs": [
        {
          "internalType": "uint256",
          "name": "",
          "type": "uint256"
        }
      ],
      "stateMutability": "view",
      "type": "function",
      "constant": true
    },
    {
      "stateMutability": "payable",
      "type": "receive",
      "payable": true
    },
    {
      "inputs": [],
      "name": "withdrawFunds",
      "outputs": [],
      "stateMutability": "nonpayable",
      "type": "function"
    },
    {
      "inputs": [],
      "name": "getBalance",
      "outputs": [
        {
          "internalType": "uint256",
          "name": "",
          "type": "uint256"
        }
      ],
      "stateMutability": "view",
      "type": "function",
      "constant": true
    },
    {
      "inputs": [],
      "name": "getUserBalance",
      "outputs": [
        {
          "internalType": "uint256",
          "name": "",
          "type": "uint256"
        }
      ],
      "stateMutability": "view",
      "type": "function",
      "constant": true
    },
    {
      "inputs": [
        {
          "internalType": "string",
          "name": "coffeeName",
          "type": "string"
        },
        {
          "internalType": "string",
          "name": "image",
          "type": "string"
        },
        {
          "internalType": "uint256",
          "name": "price",
          "type": "uint256"
        },
        {
          "internalType": "uint256",
          "name": "quantity",
          "type": "uint256"
        }
      ],
      "name": "orderCoffee",
      "outputs": [],
      "stateMutability": "payable",
      "type": "function",
      "payable": true
    },
    {
      "inputs": [],
      "name": "getOrdersCount",
      "outputs": [
        {
          "internalType": "uint256",
          "name": "",
          "type": "uint256"
        }
      ],
      "stateMutability": "view",
      "type": "function",
      "constant": true
    },
    {
      "inputs": [],
      "name": "getOrders",
      "outputs": [
        {
          "components": [
            {
              "internalType": "address",
              "name": "customer",
              "type": "address"
            },
            {
              "internalType": "string",
              "name": "coffeeName",
              "type": "string"
            },
            {
              "internalType": "string",
              "name": "image",
              "type": "string"
            },
            {
              "internalType": "uint256",
              "name": "price",
              "type": "uint256"
            },
            {
              "internalType": "uint256",
              "name": "quantity",
              "type": "uint256"
            }
          ],
          "internalType": "struct CoffeeShop.Order[]",
          "name": "",
          "type": "tuple[]"
        }
      ],
      "stateMutability": "view",
      "type": "function",
      "constant": true
    }
  ],
  "bytecode": "0x608060405234801561001057600080fd5b50610e89806100206000396000f3fe60806040526004361061007f5760003560e01c8063a85c38ef1161004e578063a85c38ef1461013b578063b34f583d1461017c578063b5b3b05114610198578063b7013dc1146101c35761009e565b806312065fe0146100a357806324600fc3146100ce5780632e2dc43e146100e5578063968ed600146101105761009e565b3661009e57346000808282546100959190610c98565b92505081905550005b600080fd5b3480156100af57600080fd5b506100b86101ee565b6040516100c59190610bb6565b60405180910390f35b3480156100da57600080fd5b506100e36101f7565b005b3480156100f157600080fd5b506100fa610249565b6040516101079190610b74565b60405180910390f35b34801561011c57600080fd5b50610125610436565b6040516101329190610bb6565b60405180910390f35b34801561014757600080fd5b50610162600480360381019061015d91906108f6565b61043c565b604051610173959493929190610b13565b60405180910390f35b61019660048036038101906101919190610863565b6105b2565b005b3480156101a457600080fd5b506101ad610717565b6040516101ba9190610bb6565b60405180910390f35b3480156101cf57600080fd5b506101d8610724565b6040516101e59190610bb6565b60405180910390f35b60008054905090565b3373ffffffffffffffffffffffffffffffffffffffff166108fc6000549081150290604051600060405180830381858888f1935050505015801561023f573d6000803e3d6000fd5b5060008081905550565b60606001805480602002602001604051908101604052809291908181526020016000905b8282101561042d57838290600052602060002090600502016040518060a00160405290816000820160009054906101000a900473ffffffffffffffffffffffffffffffffffffffff1673ffffffffffffffffffffffffffffffffffffffff1673ffffffffffffffffffffffffffffffffffffffff1681526020016001820180546102f690610d6c565b80601f016020809104026020016040519081016040528092919081815260200182805461032290610d6c565b801561036f5780601f106103445761010080835404028352916020019161036f565b820191906000526020600020905b81548152906001019060200180831161035257829003601f168201915b5050505050815260200160028201805461038890610d6c565b80601f01602080910402602001604051908101604052809291908181526020018280546103b490610d6c565b80156104015780601f106103d657610100808354040283529160200191610401565b820191906000526020600020905b8154815290600101906020018083116103e457829003601f168201915b50505050508152602001600382015481526020016004820154815250508152602001906001019061026d565b50505050905090565b60005481565b6001818154811061044c57600080fd5b90600052602060002090600502016000915090508060000160009054906101000a900473ffffffffffffffffffffffffffffffffffffffff169080600101805461049590610d6c565b80601f01602080910402602001604051908101604052809291908181526020018280546104c190610d6c565b801561050e5780601f106104e35761010080835404028352916020019161050e565b820191906000526020600020905b8154815290600101906020018083116104f157829003601f168201915b50505050509080600201805461052390610d6c565b80601f016020809104026020016040519081016040528092919081815260200182805461054f90610d6c565b801561059c5780601f106105715761010080835404028352916020019161059c565b820191906000526020600020905b81548152906001019060200180831161057f57829003601f168201915b5050505050908060030154908060040154905085565b8134146105f4576040517f08c379a00000000000000000000000000000000000000000000000000000000081526004016105eb90610b96565b60405180910390fd5b60006040518060a001604052803373ffffffffffffffffffffffffffffffffffffffff168152602001868152602001858152602001848152602001838152509050600181908060018154018082558091505060019003906000526020600020906005020160009091909190915060008201518160000160006101000a81548173ffffffffffffffffffffffffffffffffffffffff021916908373ffffffffffffffffffffffffffffffffffffffff16021790555060208201518160010190805190602001906106c4929190610743565b5060408201518160020190805190602001906106e1929190610743565b5060608201518160030155608082015181600401555050346000808282546107099190610c98565b925050819055505050505050565b6000600180549050905090565b60003373ffffffffffffffffffffffffffffffffffffffff1631905090565b82805461074f90610d6c565b90600052602060002090601f01602090048101928261077157600085556107b8565b82601f1061078a57805160ff19168380011785556107b8565b828001600101855582156107b8579182015b828111156107b757825182559160200191906001019061079c565b5b5090506107c591906107c9565b5090565b5b808211156107e25760008160009055506001016107ca565b5090565b60006107f96107f484610c02565b610bd1565b90508281526020810184848401111561081157600080fd5b61081c848285610d2a565b509392505050565b600082601f83011261083557600080fd5b81356108458482602086016107e6565b91505092915050565b60008135905061085d81610e3c565b92915050565b6000806000806080858703121561087957600080fd5b600085013567ffffffffffffffff81111561089357600080fd5b61089f87828801610824565b945050602085013567ffffffffffffffff8111156108bc57600080fd5b6108c887828801610824565b93505060406108d98782880161084e565b92505060606108ea8782880161084e565b91505092959194509250565b60006020828403121561090857600080fd5b60006109168482850161084e565b91505092915050565b600061092b8383610a78565b905092915050565b61093c81610cee565b82525050565b61094b81610cee565b82525050565b600061095c82610c42565b6109668185610c65565b93508360208202850161097885610c32565b8060005b858110156109b45784840389528151610995858261091f565b94506109a083610c58565b925060208a0199505060018101905061097c565b50829750879550505050505092915050565b60006109d182610c4d565b6109db8185610c76565b93506109eb818560208601610d39565b6109f481610e2b565b840191505092915050565b6000610a0a82610c4d565b610a148185610c87565b9350610a24818560208601610d39565b610a2d81610e2b565b840191505092915050565b6000610a45601883610c87565b91507f496e636f7272656374207061796d656e7420616d6f756e7400000000000000006000830152602082019050919050565b600060a083016000830151610a906000860182610933565b5060208301518482036020860152610aa882826109c6565b91505060408301518482036040860152610ac282826109c6565b9150506060830151610ad76060860182610af5565b506080830151610aea6080860182610af5565b508091505092915050565b610afe81610d20565b82525050565b610b0d81610d20565b82525050565b600060a082019050610b286000830188610942565b8181036020830152610b3a81876109ff565b90508181036040830152610b4e81866109ff565b9050610b5d6060830185610b04565b610b6a6080830184610b04565b9695505050505050565b60006020820190508181036000830152610b8e8184610951565b905092915050565b60006020820190508181036000830152610baf81610a38565b9050919050565b6000602082019050610bcb6000830184610b04565b92915050565b6000604051905081810181811067ffffffffffffffff82111715610bf857610bf7610dfc565b5b8060405250919050565b600067ffffffffffffffff821115610c1d57610c1c610dfc565b5b601f19601f8301169050602081019050919050565b6000819050602082019050919050565b600081519050919050565b600081519050919050565b6000602082019050919050565b600082825260208201905092915050565b600082825260208201905092915050565b600082825260208201905092915050565b6000610ca382610d20565b9150610cae83610d20565b9250827fffffffffffffffffffffffffffffffffffffffffffffffffffffffffffffffff03821115610ce357610ce2610d9e565b5b828201905092915050565b6000610cf982610d00565b9050919050565b600073ffffffffffffffffffffffffffffffffffffffff82169050919050565b6000819050919050565b82818337600083830152505050565b60005b83811015610d57578082015181840152602081019050610d3c565b83811115610d66576000848401525b50505050565b60006002820490506001821680610d8457607f821691505b60208210811415610d9857610d97610dcd565b5b50919050565b7f4e487b7100000000000000000000000000000000000000000000000000000000600052601160045260246000fd5b7f4e487b7100000000000000000000000000000000000000000000000000000000600052602260045260246000fd5b7f4e487b7100000000000000000000000000000000000000000000000000000000600052604160045260246000fd5b6000601f19601f8301169050919050565b610e4581610d20565b8114610e5057600080fd5b5056fea2646970667358221220d3bbb18e2bbd8a7e620bc87ff54de785940e840bcddc6b64d39a8e941169548a64736f6c63430008000033",
  "immutableReferences": {},
  "source": "// SPDX-License-Identifier: MIT\r\npragma solidity 0.8.0;\r\n\r\ncontract CoffeeShop {\r\n    uint public totalFunds;\r\n\r\n    receive() external payable {\r\n        totalFunds += msg.value;\r\n    }\r\n\r\n    function withdrawFunds() public {\r\n        payable(msg.sender).transfer(totalFunds);\r\n        totalFunds = 0;\r\n    }\r\n\r\n    function getBalance() public view returns (uint) {\r\n        return totalFunds;\r\n    }\r\n\r\n    // get user balance\r\n    function getUserBalance() public view returns (uint) {\r\n        return msg.sender.balance;\r\n    }\r\n\r\n    struct Order {\r\n        address customer;\r\n        string coffeeName;\r\n        string image;\r\n        uint price;\r\n        uint quantity;\r\n    }\r\n\r\n    Order[] public orders;\r\n\r\n    function orderCoffee(\r\n        string memory coffeeName,\r\n        string memory image,\r\n        uint price,\r\n        uint quantity\r\n    ) public payable {\r\n        require(msg.value == price, \"Incorrect payment amount\");\r\n\r\n        Order memory order = Order(\r\n            msg.sender,\r\n            coffeeName,\r\n            image,\r\n            price,\r\n            quantity\r\n        );\r\n        orders.push(order);\r\n\r\n        // use the recieve method to store the payment\r\n        totalFunds += msg.value;\r\n    }\r\n\r\n    function getOrdersCount() public view returns (uint) {\r\n        return orders.length;\r\n    }\r\n\r\n    // get orders\r\n    function getOrders() public view returns (Order[] memory) {\r\n        return orders;\r\n    }\r\n}\r\n",
  "sourcePath": "C:\\Users\\Manelisi Mpotulo\\Documents\\web projects\\coffee-shop-dapp\\contracts\\CoffeShop.sol",
  "compiler": {
    "name": "solc",
    "version": "0.8.0+commit.c7dfd78e.Emscripten.clang"
  },
  "schemaVersion": "3.4.16",
  "updatedAt": "2024-06-02T16:57:16.279Z",
  "networkType": "ethereum",
  "devdoc": {
    "kind": "dev",
    "methods": {},
    "version": 1
  },
  "userdoc": {
    "kind": "user",
    "methods": {},
    "version": 1
  }
}