{
  "contractName": "CoffeeShop",
  "abi": [
    {
      "inputs": [],
      "stateMutability": "nonpayable",
      "type": "constructor"
    },
    {
      "inputs": [
        {
          "internalType": "uint256",
          "name": "",
          "type": "uint256"
        }
      ],
      "name": "orders",
      "outputs": [
        {
          "internalType": "address",
          "name": "customer",
          "type": "address"
        },
        {
          "internalType": "string",
          "name": "coffeeName",
          "type": "string"
        },
        {
          "internalType": "string",
          "name": "image",
          "type": "string"
        },
        {
          "internalType": "uint256",
          "name": "price",
          "type": "uint256"
        },
        {
          "internalType": "uint256",
          "name": "quantity",
          "type": "uint256"
        },
        {
          "internalType": "string",
          "name": "status",
          "type": "string"
        }
      ],
      "stateMutability": "view",
      "type": "function",
      "constant": true
    },
    {
      "inputs": [],
      "name": "owner",
      "outputs": [
        {
          "internalType": "address",
          "name": "",
          "type": "address"
        }
      ],
      "stateMutability": "view",
      "type": "function",
      "constant": true
    },
    {
      "inputs": [],
      "name": "totalFunds",
      "outputs": [
        {
          "internalType": "uint256",
          "name": "",
          "type": "uint256"
        }
      ],
      "stateMutability": "view",
      "type": "function",
      "constant": true
    },
    {
      "stateMutability": "payable",
      "type": "receive",
      "payable": true
    },
    {
      "inputs": [
        {
          "internalType": "address",
          "name": "account",
          "type": "address"
        }
      ],
      "name": "isOwner",
      "outputs": [
        {
          "internalType": "bool",
          "name": "",
          "type": "bool"
        }
      ],
      "stateMutability": "view",
      "type": "function",
      "constant": true
    },
    {
      "inputs": [
        {
          "internalType": "uint256",
          "name": "amount",
          "type": "uint256"
        }
      ],
      "name": "withdrawFunds",
      "outputs": [],
      "stateMutability": "nonpayable",
      "type": "function"
    },
    {
      "inputs": [],
      "name": "getBalance",
      "outputs": [
        {
          "internalType": "uint256",
          "name": "",
          "type": "uint256"
        }
      ],
      "stateMutability": "view",
      "type": "function",
      "constant": true
    },
    {
      "inputs": [],
      "name": "getUserBalance",
      "outputs": [
        {
          "internalType": "uint256",
          "name": "",
          "type": "uint256"
        }
      ],
      "stateMutability": "view",
      "type": "function",
      "constant": true
    },
    {
      "inputs": [
        {
          "internalType": "string",
          "name": "coffeeName",
          "type": "string"
        },
        {
          "internalType": "string",
          "name": "image",
          "type": "string"
        },
        {
          "internalType": "uint256",
          "name": "price",
          "type": "uint256"
        },
        {
          "internalType": "uint256",
          "name": "quantity",
          "type": "uint256"
        },
        {
          "internalType": "string",
          "name": "status",
          "type": "string"
        }
      ],
      "name": "orderCoffee",
      "outputs": [],
      "stateMutability": "payable",
      "type": "function",
      "payable": true
    },
    {
      "inputs": [],
      "name": "getOrdersCount",
      "outputs": [
        {
          "internalType": "uint256",
          "name": "",
          "type": "uint256"
        }
      ],
      "stateMutability": "view",
      "type": "function",
      "constant": true
    },
    {
      "inputs": [],
      "name": "getOrders",
      "outputs": [
        {
          "components": [
            {
              "internalType": "address",
              "name": "customer",
              "type": "address"
            },
            {
              "internalType": "string",
              "name": "coffeeName",
              "type": "string"
            },
            {
              "internalType": "string",
              "name": "image",
              "type": "string"
            },
            {
              "internalType": "uint256",
              "name": "price",
              "type": "uint256"
            },
            {
              "internalType": "uint256",
              "name": "quantity",
              "type": "uint256"
            },
            {
              "internalType": "string",
              "name": "status",
              "type": "string"
            }
          ],
          "internalType": "struct CoffeeShop.Order[]",
          "name": "",
          "type": "tuple[]"
        }
      ],
      "stateMutability": "view",
      "type": "function",
      "constant": true
    },
    {
      "inputs": [
        {
          "internalType": "address",
          "name": "account",
          "type": "address"
        }
      ],
      "name": "getUserOrders",
      "outputs": [
        {
          "components": [
            {
              "internalType": "address",
              "name": "customer",
              "type": "address"
            },
            {
              "internalType": "string",
              "name": "coffeeName",
              "type": "string"
            },
            {
              "internalType": "string",
              "name": "image",
              "type": "string"
            },
            {
              "internalType": "uint256",
              "name": "price",
              "type": "uint256"
            },
            {
              "internalType": "uint256",
              "name": "quantity",
              "type": "uint256"
            },
            {
              "internalType": "string",
              "name": "status",
              "type": "string"
            }
          ],
          "internalType": "struct CoffeeShop.Order[]",
          "name": "",
          "type": "tuple[]"
        }
      ],
      "stateMutability": "view",
      "type": "function",
      "constant": true
    }
  ],
  "bytecode": "0x608060405234801561001057600080fd5b5033600160006101000a81548173ffffffffffffffffffffffffffffffffffffffff021916908373ffffffffffffffffffffffffffffffffffffffff1602179055506119a3806100616000396000f3fe6080604052600436106100a05760003560e01c80638da5cb5b116100645780638da5cb5b146101bd578063968ed600146101e8578063a85c38ef14610213578063b5b3b05114610255578063b7013dc114610280578063c22aabb6146102ab576100bf565b806312065fe0146100c4578063155dd5ee146100ef5780632e2dc43e146101185780632f54bf6e1461014357806363c69f0814610180576100bf565b366100bf57346000808282546100b69190611712565b92505081905550005b600080fd5b3480156100d057600080fd5b506100d96102c7565b6040516100e69190611630565b60405180910390f35b3480156100fb57600080fd5b5061011660048036038101906101119190611216565b6102d0565b005b34801561012457600080fd5b5061012d610407565b60405161013a9190611593565b60405180910390f35b34801561014f57600080fd5b5061016a6004803603810190610165919061112e565b610686565b60405161017791906115b5565b60405180910390f35b34801561018c57600080fd5b506101a760048036038101906101a2919061112e565b6106e0565b6040516101b49190611593565b60405180910390f35b3480156101c957600080fd5b506101d2610bc8565b6040516101df9190611502565b60405180910390f35b3480156101f457600080fd5b506101fd610bee565b60405161020a9190611630565b60405180910390f35b34801561021f57600080fd5b5061023a60048036038101906102359190611216565b610bf4565b60405161024c9695949392919061151d565b60405180910390f35b34801561026157600080fd5b5061026a610df8565b6040516102779190611630565b60405180910390f35b34801561028c57600080fd5b50610295610e05565b6040516102a29190611630565b60405180910390f35b6102c560048036038101906102c09190611157565b610e24565b005b60008054905090565b600160009054906101000a900473ffffffffffffffffffffffffffffffffffffffff1673ffffffffffffffffffffffffffffffffffffffff163373ffffffffffffffffffffffffffffffffffffffff1614610360576040517f08c379a0000000000000000000000000000000000000000000000000000000008152600401610357906115d0565b60405180910390fd5b6000548111156103a5576040517f08c379a000000000000000000000000000000000000000000000000000000000815260040161039c90611610565b60405180910390fd5b3373ffffffffffffffffffffffffffffffffffffffff166108fc829081150290604051600060405180830381858888f193505050501580156103eb573d6000803e3d6000fd5b50806000808282546103fd9190611768565b9250508190555050565b60606002805480602002602001604051908101604052809291908181526020016000905b8282101561067d57838290600052602060002090600602016040518060c00160405290816000820160009054906101000a900473ffffffffffffffffffffffffffffffffffffffff1673ffffffffffffffffffffffffffffffffffffffff1673ffffffffffffffffffffffffffffffffffffffff1681526020016001820180546104b490611826565b80601f01602080910402602001604051908101604052809291908181526020018280546104e090611826565b801561052d5780601f106105025761010080835404028352916020019161052d565b820191906000526020600020905b81548152906001019060200180831161051057829003601f168201915b5050505050815260200160028201805461054690611826565b80601f016020809104026020016040519081016040528092919081815260200182805461057290611826565b80156105bf5780601f10610594576101008083540402835291602001916105bf565b820191906000526020600020905b8154815290600101906020018083116105a257829003601f168201915b5050505050815260200160038201548152602001600482015481526020016005820180546105ec90611826565b80601f016020809104026020016040519081016040528092919081815260200182805461061890611826565b80156106655780601f1061063a57610100808354040283529160200191610665565b820191906000526020600020905b81548152906001019060200180831161064857829003601f168201915b5050505050815250508152602001906001019061042b565b50505050905090565b6000600160009054906101000a900473ffffffffffffffffffffffffffffffffffffffff1673ffffffffffffffffffffffffffffffffffffffff168273ffffffffffffffffffffffffffffffffffffffff16149050919050565b60606000805b6002805490508110156107b4578373ffffffffffffffffffffffffffffffffffffffff1660028281548110610744577f4e487b7100000000000000000000000000000000000000000000000000000000600052603260045260246000fd5b906000526020600020906006020160000160009054906101000a900473ffffffffffffffffffffffffffffffffffffffff1673ffffffffffffffffffffffffffffffffffffffff1614156107a157818061079d90611858565b9250505b80806107ac90611858565b9150506106e6565b5060008167ffffffffffffffff8111156107f7577f4e487b7100000000000000000000000000000000000000000000000000000000600052604160045260246000fd5b60405190808252806020026020018201604052801561083057816020015b61081d610fad565b8152602001906001900390816108155790505b5090506000805b600280549050811015610bbc578573ffffffffffffffffffffffffffffffffffffffff1660028281548110610895577f4e487b7100000000000000000000000000000000000000000000000000000000600052603260045260246000fd5b906000526020600020906006020160000160009054906101000a900473ffffffffffffffffffffffffffffffffffffffff1673ffffffffffffffffffffffffffffffffffffffff161415610ba9576002818154811061091d577f4e487b7100000000000000000000000000000000000000000000000000000000600052603260045260246000fd5b90600052602060002090600602016040518060c00160405290816000820160009054906101000a900473ffffffffffffffffffffffffffffffffffffffff1673ffffffffffffffffffffffffffffffffffffffff1673ffffffffffffffffffffffffffffffffffffffff16815260200160018201805461099c90611826565b80601f01602080910402602001604051908101604052809291908181526020018280546109c890611826565b8015610a155780601f106109ea57610100808354040283529160200191610a15565b820191906000526020600020905b8154815290600101906020018083116109f857829003601f168201915b50505050508152602001600282018054610a2e90611826565b80601f0160208091040260200160405190810160405280929190818152602001828054610a5a90611826565b8015610aa75780601f10610a7c57610100808354040283529160200191610aa7565b820191906000526020600020905b815481529060010190602001808311610a8a57829003601f168201915b505050505081526020016003820154815260200160048201548152602001600582018054610ad490611826565b80601f0160208091040260200160405190810160405280929190818152602001828054610b0090611826565b8015610b4d5780601f10610b2257610100808354040283529160200191610b4d565b820191906000526020600020905b815481529060010190602001808311610b3057829003601f168201915b505050505081525050838381518110610b8f577f4e487b7100000000000000000000000000000000000000000000000000000000600052603260045260246000fd5b60200260200101819052508180610ba590611858565b9250505b8080610bb490611858565b915050610837565b50819350505050919050565b600160009054906101000a900473ffffffffffffffffffffffffffffffffffffffff1681565b60005481565b60028181548110610c0457600080fd5b90600052602060002090600602016000915090508060000160009054906101000a900473ffffffffffffffffffffffffffffffffffffffff1690806001018054610c4d90611826565b80601f0160208091040260200160405190810160405280929190818152602001828054610c7990611826565b8015610cc65780601f10610c9b57610100808354040283529160200191610cc6565b820191906000526020600020905b815481529060010190602001808311610ca957829003601f168201915b505050505090806002018054610cdb90611826565b80601f0160208091040260200160405190810160405280929190818152602001828054610d0790611826565b8015610d545780601f10610d2957610100808354040283529160200191610d54565b820191906000526020600020905b815481529060010190602001808311610d3757829003601f168201915b505050505090806003015490806004015490806005018054610d7590611826565b80601f0160208091040260200160405190810160405280929190818152602001828054610da190611826565b8015610dee5780601f10610dc357610100808354040283529160200191610dee565b820191906000526020600020905b815481529060010190602001808311610dd157829003601f168201915b5050505050905086565b6000600280549050905090565b60003373ffffffffffffffffffffffffffffffffffffffff1631905090565b823414610e66576040517f08c379a0000000000000000000000000000000000000000000000000000000008152600401610e5d906115f0565b60405180910390fd5b60006040518060c001604052803373ffffffffffffffffffffffffffffffffffffffff168152602001878152602001868152602001858152602001848152602001838152509050600281908060018154018082558091505060019003906000526020600020906006020160009091909190915060008201518160000160006101000a81548173ffffffffffffffffffffffffffffffffffffffff021916908373ffffffffffffffffffffffffffffffffffffffff1602179055506020820151816001019080519060200190610f3c929190610ff9565b506040820151816002019080519060200190610f59929190610ff9565b50606082015181600301556080820151816004015560a0820151816005019080519060200190610f8a929190610ff9565b50505034600080828254610f9e9190611712565b92505081905550505050505050565b6040518060c00160405280600073ffffffffffffffffffffffffffffffffffffffff16815260200160608152602001606081526020016000815260200160008152602001606081525090565b82805461100590611826565b90600052602060002090601f016020900481019282611027576000855561106e565b82601f1061104057805160ff191683800117855561106e565b8280016001018555821561106e579182015b8281111561106d578251825591602001919060010190611052565b5b50905061107b919061107f565b5090565b5b80821115611098576000816000905550600101611080565b5090565b60006110af6110aa8461167c565b61164b565b9050828152602081018484840111156110c757600080fd5b6110d28482856117e4565b509392505050565b6000813590506110e98161193f565b92915050565b600082601f83011261110057600080fd5b813561111084826020860161109c565b91505092915050565b60008135905061112881611956565b92915050565b60006020828403121561114057600080fd5b600061114e848285016110da565b91505092915050565b600080600080600060a0868803121561116f57600080fd5b600086013567ffffffffffffffff81111561118957600080fd5b611195888289016110ef565b955050602086013567ffffffffffffffff8111156111b257600080fd5b6111be888289016110ef565b94505060406111cf88828901611119565b93505060606111e088828901611119565b925050608086013567ffffffffffffffff8111156111fd57600080fd5b611209888289016110ef565b9150509295509295909350565b60006020828403121561122857600080fd5b600061123684828501611119565b91505092915050565b600061124b838361144d565b905092915050565b61125c8161179c565b82525050565b61126b8161179c565b82525050565b600061127c826116bc565b61128681856116df565b935083602082028501611298856116ac565b8060005b858110156112d457848403895281516112b5858261123f565b94506112c0836116d2565b925060208a0199505060018101905061129c565b50829750879550505050505092915050565b6112ef816117ae565b82525050565b6000611300826116c7565b61130a81856116f0565b935061131a8185602086016117f3565b6113238161192e565b840191505092915050565b6000611339826116c7565b6113438185611701565b93506113538185602086016117f3565b61135c8161192e565b840191505092915050565b6000611374602583611701565b91507f4f6e6c7920746865206f776e65722063616e2063616c6c20746869732066756e60008301527f6374696f6e0000000000000000000000000000000000000000000000000000006020830152604082019050919050565b60006113da601883611701565b91507f496e636f7272656374207061796d656e7420616d6f756e7400000000000000006000830152602082019050919050565b600061141a601283611701565b91507f496e73756666696369656e742066756e647300000000000000000000000000006000830152602082019050919050565b600060c0830160008301516114656000860182611253565b506020830151848203602086015261147d82826112f5565b9150506040830151848203604086015261149782826112f5565b91505060608301516114ac60608601826114e4565b5060808301516114bf60808601826114e4565b5060a083015184820360a08601526114d782826112f5565b9150508091505092915050565b6114ed816117da565b82525050565b6114fc816117da565b82525050565b60006020820190506115176000830184611262565b92915050565b600060c0820190506115326000830189611262565b8181036020830152611544818861132e565b90508181036040830152611558818761132e565b905061156760608301866114f3565b61157460808301856114f3565b81810360a0830152611586818461132e565b9050979650505050505050565b600060208201905081810360008301526115ad8184611271565b905092915050565b60006020820190506115ca60008301846112e6565b92915050565b600060208201905081810360008301526115e981611367565b9050919050565b60006020820190508181036000830152611609816113cd565b9050919050565b600060208201905081810360008301526116298161140d565b9050919050565b600060208201905061164560008301846114f3565b92915050565b6000604051905081810181811067ffffffffffffffff82111715611672576116716118ff565b5b8060405250919050565b600067ffffffffffffffff821115611697576116966118ff565b5b601f19601f8301169050602081019050919050565b6000819050602082019050919050565b600081519050919050565b600081519050919050565b6000602082019050919050565b600082825260208201905092915050565b600082825260208201905092915050565b600082825260208201905092915050565b600061171d826117da565b9150611728836117da565b9250827fffffffffffffffffffffffffffffffffffffffffffffffffffffffffffffffff0382111561175d5761175c6118a1565b5b828201905092915050565b6000611773826117da565b915061177e836117da565b925082821015611791576117906118a1565b5b828203905092915050565b60006117a7826117ba565b9050919050565b60008115159050919050565b600073ffffffffffffffffffffffffffffffffffffffff82169050919050565b6000819050919050565b82818337600083830152505050565b60005b838110156118115780820151818401526020810190506117f6565b83811115611820576000848401525b50505050565b6000600282049050600182168061183e57607f821691505b60208210811415611852576118516118d0565b5b50919050565b6000611863826117da565b91507fffffffffffffffffffffffffffffffffffffffffffffffffffffffffffffffff821415611896576118956118a1565b5b600182019050919050565b7f4e487b7100000000000000000000000000000000000000000000000000000000600052601160045260246000fd5b7f4e487b7100000000000000000000000000000000000000000000000000000000600052602260045260246000fd5b7f4e487b7100000000000000000000000000000000000000000000000000000000600052604160045260246000fd5b6000601f19601f8301169050919050565b6119488161179c565b811461195357600080fd5b50565b61195f816117da565b811461196a57600080fd5b5056fea2646970667358221220a6b4678e17fb9ce4a5e3688d42d2cef3b14a419bcf397e80a457c6634e1b3aa764736f6c63430008000033",
  "immutableReferences": {},
  "source": "// SPDX-License-Identifier: MIT\r\npragma solidity 0.8.0;\r\n\r\ncontract CoffeeShop {\r\n    uint public totalFunds;\r\n\r\n    receive() external payable {\r\n        totalFunds += msg.value;\r\n    }\r\n\r\n    address public owner;\r\n\r\n    constructor() {\r\n        owner = msg.sender;\r\n    }\r\n\r\n    modifier onlyOwner() {\r\n        require(msg.sender == owner, \"Only the owner can call this function\");\r\n        _;\r\n    }\r\n\r\n    // check if the caller is the owner\r\n    function isOwner(address account) public view returns (bool) {\r\n        return account == owner;\r\n    }\r\n\r\n    function withdrawFunds(uint amount) public onlyOwner {\r\n        require(amount <= totalFunds, \"Insufficient funds\");\r\n        payable(msg.sender).transfer(amount);\r\n        totalFunds -= amount;\r\n    }\r\n\r\n    function getBalance() public view returns (uint) {\r\n        return totalFunds;\r\n    }\r\n\r\n    // get user balance\r\n    function getUserBalance() public view returns (uint) {\r\n        return msg.sender.balance;\r\n    }\r\n\r\n    struct Order {\r\n        address customer;\r\n        string coffeeName;\r\n        string image;\r\n        uint price;\r\n        uint quantity;\r\n        string status;\r\n    }\r\n\r\n    Order[] public orders;\r\n\r\n    function orderCoffee(\r\n        string memory coffeeName,\r\n        string memory image,\r\n        uint price,\r\n        uint quantity,\r\n        string memory status\r\n    ) public payable {\r\n        require(msg.value == price, \"Incorrect payment amount\");\r\n\r\n        Order memory order = Order(\r\n            msg.sender,\r\n            coffeeName,\r\n            image,\r\n            price,\r\n            quantity,\r\n            status\r\n        );\r\n        orders.push(order);\r\n\r\n        // use the recieve method to store the payment\r\n        totalFunds += msg.value;\r\n    }\r\n\r\n    function getOrdersCount() public view returns (uint) {\r\n        return orders.length;\r\n    }\r\n\r\n    // get orders\r\n    function getOrders() public view returns (Order[] memory) {\r\n        return orders;\r\n    }\r\n\r\n    // get user orders\r\n    function getUserOrders(\r\n        address account\r\n    ) public view returns (Order[] memory) {\r\n        uint userOrderCount = 0;\r\n        for (uint i = 0; i < orders.length; i++) {\r\n            if (orders[i].customer == account) {\r\n                userOrderCount++;\r\n            }\r\n        }\r\n\r\n        Order[] memory userOrders = new Order[](userOrderCount);\r\n        uint index = 0;\r\n        for (uint i = 0; i < orders.length; i++) {\r\n            if (orders[i].customer == account) {\r\n                userOrders[index] = orders[i];\r\n                index++;\r\n            }\r\n        }\r\n\r\n        return userOrders;\r\n    }\r\n}\r\n",
  "sourcePath": "C:\\Users\\Manelisi Mpotulo\\Documents\\web projects\\coffee-shop-dapp\\contracts\\CoffeShop.sol",
  "compiler": {
    "name": "solc",
    "version": "0.8.0+commit.c7dfd78e.Emscripten.clang"
  },
  "schemaVersion": "3.4.16",
  "updatedAt": "2024-06-08T17:23:42.044Z",
  "networkType": "ethereum",
  "devdoc": {
    "kind": "dev",
    "methods": {},
    "version": 1
  },
  "userdoc": {
    "kind": "user",
    "methods": {},
    "version": 1
  }
}