{
  "contractName": "CoffeeShop",
  "abi": [
    {
      "inputs": [],
      "stateMutability": "nonpayable",
      "type": "constructor"
    },
    {
      "inputs": [
        {
          "internalType": "uint256",
          "name": "",
          "type": "uint256"
        }
      ],
      "name": "orders",
      "outputs": [
        {
          "internalType": "address",
          "name": "customer",
          "type": "address"
        },
        {
          "internalType": "string",
          "name": "coffeeName",
          "type": "string"
        },
        {
          "internalType": "string",
          "name": "image",
          "type": "string"
        },
        {
          "internalType": "uint256",
          "name": "price",
          "type": "uint256"
        },
        {
          "internalType": "uint256",
          "name": "quantity",
          "type": "uint256"
        },
        {
          "internalType": "string",
          "name": "status",
          "type": "string"
        }
      ],
      "stateMutability": "view",
      "type": "function",
      "constant": true
    },
    {
      "inputs": [],
      "name": "owner",
      "outputs": [
        {
          "internalType": "address",
          "name": "",
          "type": "address"
        }
      ],
      "stateMutability": "view",
      "type": "function",
      "constant": true
    },
    {
      "inputs": [],
      "name": "totalFunds",
      "outputs": [
        {
          "internalType": "uint256",
          "name": "",
          "type": "uint256"
        }
      ],
      "stateMutability": "view",
      "type": "function",
      "constant": true
    },
    {
      "stateMutability": "payable",
      "type": "receive",
      "payable": true
    },
    {
      "inputs": [
        {
          "internalType": "address",
          "name": "account",
          "type": "address"
        }
      ],
      "name": "isOwner",
      "outputs": [
        {
          "internalType": "bool",
          "name": "",
          "type": "bool"
        }
      ],
      "stateMutability": "view",
      "type": "function",
      "constant": true
    },
    {
      "inputs": [
        {
          "internalType": "uint256",
          "name": "amount",
          "type": "uint256"
        }
      ],
      "name": "withdrawFunds",
      "outputs": [],
      "stateMutability": "nonpayable",
      "type": "function"
    },
    {
      "inputs": [],
      "name": "getBalance",
      "outputs": [
        {
          "internalType": "uint256",
          "name": "",
          "type": "uint256"
        }
      ],
      "stateMutability": "view",
      "type": "function",
      "constant": true
    },
    {
      "inputs": [],
      "name": "getUserBalance",
      "outputs": [
        {
          "internalType": "uint256",
          "name": "",
          "type": "uint256"
        }
      ],
      "stateMutability": "view",
      "type": "function",
      "constant": true
    },
    {
      "inputs": [
        {
          "internalType": "string",
          "name": "coffeeName",
          "type": "string"
        },
        {
          "internalType": "string",
          "name": "image",
          "type": "string"
        },
        {
          "internalType": "uint256",
          "name": "price",
          "type": "uint256"
        },
        {
          "internalType": "uint256",
          "name": "quantity",
          "type": "uint256"
        },
        {
          "internalType": "string",
          "name": "status",
          "type": "string"
        }
      ],
      "name": "orderCoffee",
      "outputs": [],
      "stateMutability": "payable",
      "type": "function",
      "payable": true
    },
    {
      "inputs": [
        {
          "internalType": "uint256",
          "name": "index",
          "type": "uint256"
        }
      ],
      "name": "changeOrderStatus",
      "outputs": [],
      "stateMutability": "nonpayable",
      "type": "function"
    },
    {
      "inputs": [],
      "name": "getOrdersCount",
      "outputs": [
        {
          "internalType": "uint256",
          "name": "",
          "type": "uint256"
        }
      ],
      "stateMutability": "view",
      "type": "function",
      "constant": true
    },
    {
      "inputs": [],
      "name": "getOrders",
      "outputs": [
        {
          "components": [
            {
              "internalType": "address",
              "name": "customer",
              "type": "address"
            },
            {
              "internalType": "string",
              "name": "coffeeName",
              "type": "string"
            },
            {
              "internalType": "string",
              "name": "image",
              "type": "string"
            },
            {
              "internalType": "uint256",
              "name": "price",
              "type": "uint256"
            },
            {
              "internalType": "uint256",
              "name": "quantity",
              "type": "uint256"
            },
            {
              "internalType": "string",
              "name": "status",
              "type": "string"
            }
          ],
          "internalType": "struct CoffeeShop.Order[]",
          "name": "",
          "type": "tuple[]"
        }
      ],
      "stateMutability": "view",
      "type": "function",
      "constant": true
    },
    {
      "inputs": [
        {
          "internalType": "address",
          "name": "account",
          "type": "address"
        }
      ],
      "name": "getUserOrders",
      "outputs": [
        {
          "components": [
            {
              "internalType": "address",
              "name": "customer",
              "type": "address"
            },
            {
              "internalType": "string",
              "name": "coffeeName",
              "type": "string"
            },
            {
              "internalType": "string",
              "name": "image",
              "type": "string"
            },
            {
              "internalType": "uint256",
              "name": "price",
              "type": "uint256"
            },
            {
              "internalType": "uint256",
              "name": "quantity",
              "type": "uint256"
            },
            {
              "internalType": "string",
              "name": "status",
              "type": "string"
            }
          ],
          "internalType": "struct CoffeeShop.Order[]",
          "name": "",
          "type": "tuple[]"
        }
      ],
      "stateMutability": "view",
      "type": "function",
      "constant": true
    }
  ],
  "bytecode": "0x608060405234801561001057600080fd5b5033600160006101000a81548173ffffffffffffffffffffffffffffffffffffffff021916908373ffffffffffffffffffffffffffffffffffffffff160217905550611b90806100616000396000f3fe6080604052600436106100ab5760003560e01c80638da5cb5b116100645780638da5cb5b146101f1578063968ed6001461021c578063a85c38ef14610247578063b5b3b05114610289578063b7013dc1146102b4578063c22aabb6146102df576100ca565b806312065fe0146100cf578063155dd5ee146100fa57806319b01608146101235780632e2dc43e1461014c5780632f54bf6e1461017757806363c69f08146101b4576100ca565b366100ca57346000808282546100c191906118ff565b92505081905550005b600080fd5b3480156100db57600080fd5b506100e46102fb565b6040516100f1919061181d565b60405180910390f35b34801561010657600080fd5b50610121600480360381019061011c9190611403565b610395565b005b34801561012f57600080fd5b5061014a60048036038101906101459190611403565b6104cc565b005b34801561015857600080fd5b506101616105f4565b60405161016e9190611780565b60405180910390f35b34801561018357600080fd5b5061019e6004803603810190610199919061131b565b610873565b6040516101ab91906117a2565b60405180910390f35b3480156101c057600080fd5b506101db60048036038101906101d6919061131b565b6108cd565b6040516101e89190611780565b60405180910390f35b3480156101fd57600080fd5b50610206610db5565b60405161021391906116ef565b60405180910390f35b34801561022857600080fd5b50610231610ddb565b60405161023e919061181d565b60405180910390f35b34801561025357600080fd5b5061026e60048036038101906102699190611403565b610de1565b6040516102809695949392919061170a565b60405180910390f35b34801561029557600080fd5b5061029e610fe5565b6040516102ab919061181d565b60405180910390f35b3480156102c057600080fd5b506102c9610ff2565b6040516102d6919061181d565b60405180910390f35b6102f960048036038101906102f49190611344565b611011565b005b6000600160009054906101000a900473ffffffffffffffffffffffffffffffffffffffff1673ffffffffffffffffffffffffffffffffffffffff163373ffffffffffffffffffffffffffffffffffffffff161461038d576040517f08c379a0000000000000000000000000000000000000000000000000000000008152600401610384906117bd565b60405180910390fd5b600054905090565b600160009054906101000a900473ffffffffffffffffffffffffffffffffffffffff1673ffffffffffffffffffffffffffffffffffffffff163373ffffffffffffffffffffffffffffffffffffffff1614610425576040517f08c379a000000000000000000000000000000000000000000000000000000000815260040161041c906117bd565b60405180910390fd5b60005481111561046a576040517f08c379a0000000000000000000000000000000000000000000000000000000008152600401610461906117fd565b60405180910390fd5b3373ffffffffffffffffffffffffffffffffffffffff166108fc829081150290604051600060405180830381858888f193505050501580156104b0573d6000803e3d6000fd5b50806000808282546104c29190611955565b9250508190555050565b600160009054906101000a900473ffffffffffffffffffffffffffffffffffffffff1673ffffffffffffffffffffffffffffffffffffffff163373ffffffffffffffffffffffffffffffffffffffff161461055c576040517f08c379a0000000000000000000000000000000000000000000000000000000008152600401610553906117bd565b60405180910390fd5b6040518060400160405280600981526020017f436f6d706c657465640000000000000000000000000000000000000000000000815250600282815481106105cc577f4e487b7100000000000000000000000000000000000000000000000000000000600052603260045260246000fd5b906000526020600020906006020160050190805190602001906105f092919061119a565b5050565b60606002805480602002602001604051908101604052809291908181526020016000905b8282101561086a57838290600052602060002090600602016040518060c00160405290816000820160009054906101000a900473ffffffffffffffffffffffffffffffffffffffff1673ffffffffffffffffffffffffffffffffffffffff1673ffffffffffffffffffffffffffffffffffffffff1681526020016001820180546106a190611a13565b80601f01602080910402602001604051908101604052809291908181526020018280546106cd90611a13565b801561071a5780601f106106ef5761010080835404028352916020019161071a565b820191906000526020600020905b8154815290600101906020018083116106fd57829003601f168201915b5050505050815260200160028201805461073390611a13565b80601f016020809104026020016040519081016040528092919081815260200182805461075f90611a13565b80156107ac5780601f10610781576101008083540402835291602001916107ac565b820191906000526020600020905b81548152906001019060200180831161078f57829003601f168201915b5050505050815260200160038201548152602001600482015481526020016005820180546107d990611a13565b80601f016020809104026020016040519081016040528092919081815260200182805461080590611a13565b80156108525780601f1061082757610100808354040283529160200191610852565b820191906000526020600020905b81548152906001019060200180831161083557829003601f168201915b50505050508152505081526020019060010190610618565b50505050905090565b6000600160009054906101000a900473ffffffffffffffffffffffffffffffffffffffff1673ffffffffffffffffffffffffffffffffffffffff168273ffffffffffffffffffffffffffffffffffffffff16149050919050565b60606000805b6002805490508110156109a1578373ffffffffffffffffffffffffffffffffffffffff1660028281548110610931577f4e487b7100000000000000000000000000000000000000000000000000000000600052603260045260246000fd5b906000526020600020906006020160000160009054906101000a900473ffffffffffffffffffffffffffffffffffffffff1673ffffffffffffffffffffffffffffffffffffffff16141561098e57818061098a90611a45565b9250505b808061099990611a45565b9150506108d3565b5060008167ffffffffffffffff8111156109e4577f4e487b7100000000000000000000000000000000000000000000000000000000600052604160045260246000fd5b604051908082528060200260200182016040528015610a1d57816020015b610a0a611220565b815260200190600190039081610a025790505b5090506000805b600280549050811015610da9578573ffffffffffffffffffffffffffffffffffffffff1660028281548110610a82577f4e487b7100000000000000000000000000000000000000000000000000000000600052603260045260246000fd5b906000526020600020906006020160000160009054906101000a900473ffffffffffffffffffffffffffffffffffffffff1673ffffffffffffffffffffffffffffffffffffffff161415610d965760028181548110610b0a577f4e487b7100000000000000000000000000000000000000000000000000000000600052603260045260246000fd5b90600052602060002090600602016040518060c00160405290816000820160009054906101000a900473ffffffffffffffffffffffffffffffffffffffff1673ffffffffffffffffffffffffffffffffffffffff1673ffffffffffffffffffffffffffffffffffffffff168152602001600182018054610b8990611a13565b80601f0160208091040260200160405190810160405280929190818152602001828054610bb590611a13565b8015610c025780601f10610bd757610100808354040283529160200191610c02565b820191906000526020600020905b815481529060010190602001808311610be557829003601f168201915b50505050508152602001600282018054610c1b90611a13565b80601f0160208091040260200160405190810160405280929190818152602001828054610c4790611a13565b8015610c945780601f10610c6957610100808354040283529160200191610c94565b820191906000526020600020905b815481529060010190602001808311610c7757829003601f168201915b505050505081526020016003820154815260200160048201548152602001600582018054610cc190611a13565b80601f0160208091040260200160405190810160405280929190818152602001828054610ced90611a13565b8015610d3a5780601f10610d0f57610100808354040283529160200191610d3a565b820191906000526020600020905b815481529060010190602001808311610d1d57829003601f168201915b505050505081525050838381518110610d7c577f4e487b7100000000000000000000000000000000000000000000000000000000600052603260045260246000fd5b60200260200101819052508180610d9290611a45565b9250505b8080610da190611a45565b915050610a24565b50819350505050919050565b600160009054906101000a900473ffffffffffffffffffffffffffffffffffffffff1681565b60005481565b60028181548110610df157600080fd5b90600052602060002090600602016000915090508060000160009054906101000a900473ffffffffffffffffffffffffffffffffffffffff1690806001018054610e3a90611a13565b80601f0160208091040260200160405190810160405280929190818152602001828054610e6690611a13565b8015610eb35780601f10610e8857610100808354040283529160200191610eb3565b820191906000526020600020905b815481529060010190602001808311610e9657829003601f168201915b505050505090806002018054610ec890611a13565b80601f0160208091040260200160405190810160405280929190818152602001828054610ef490611a13565b8015610f415780601f10610f1657610100808354040283529160200191610f41565b820191906000526020600020905b815481529060010190602001808311610f2457829003601f168201915b505050505090806003015490806004015490806005018054610f6290611a13565b80601f0160208091040260200160405190810160405280929190818152602001828054610f8e90611a13565b8015610fdb5780601f10610fb057610100808354040283529160200191610fdb565b820191906000526020600020905b815481529060010190602001808311610fbe57829003601f168201915b5050505050905086565b6000600280549050905090565b60003373ffffffffffffffffffffffffffffffffffffffff1631905090565b823414611053576040517f08c379a000000000000000000000000000000000000000000000000000000000815260040161104a906117dd565b60405180910390fd5b60006040518060c001604052803373ffffffffffffffffffffffffffffffffffffffff168152602001878152602001868152602001858152602001848152602001838152509050600281908060018154018082558091505060019003906000526020600020906006020160009091909190915060008201518160000160006101000a81548173ffffffffffffffffffffffffffffffffffffffff021916908373ffffffffffffffffffffffffffffffffffffffff160217905550602082015181600101908051906020019061112992919061119a565b50604082015181600201908051906020019061114692919061119a565b50606082015181600301556080820151816004015560a082015181600501908051906020019061117792919061119a565b5050503460008082825461118b91906118ff565b92505081905550505050505050565b8280546111a690611a13565b90600052602060002090601f0160209004810192826111c8576000855561120f565b82601f106111e157805160ff191683800117855561120f565b8280016001018555821561120f579182015b8281111561120e5782518255916020019190600101906111f3565b5b50905061121c919061126c565b5090565b6040518060c00160405280600073ffffffffffffffffffffffffffffffffffffffff16815260200160608152602001606081526020016000815260200160008152602001606081525090565b5b8082111561128557600081600090555060010161126d565b5090565b600061129c61129784611869565b611838565b9050828152602081018484840111156112b457600080fd5b6112bf8482856119d1565b509392505050565b6000813590506112d681611b2c565b92915050565b600082601f8301126112ed57600080fd5b81356112fd848260208601611289565b91505092915050565b60008135905061131581611b43565b92915050565b60006020828403121561132d57600080fd5b600061133b848285016112c7565b91505092915050565b600080600080600060a0868803121561135c57600080fd5b600086013567ffffffffffffffff81111561137657600080fd5b611382888289016112dc565b955050602086013567ffffffffffffffff81111561139f57600080fd5b6113ab888289016112dc565b94505060406113bc88828901611306565b93505060606113cd88828901611306565b925050608086013567ffffffffffffffff8111156113ea57600080fd5b6113f6888289016112dc565b9150509295509295909350565b60006020828403121561141557600080fd5b600061142384828501611306565b91505092915050565b6000611438838361163a565b905092915050565b61144981611989565b82525050565b61145881611989565b82525050565b6000611469826118a9565b61147381856118cc565b93508360208202850161148585611899565b8060005b858110156114c157848403895281516114a2858261142c565b94506114ad836118bf565b925060208a01995050600181019050611489565b50829750879550505050505092915050565b6114dc8161199b565b82525050565b60006114ed826118b4565b6114f781856118dd565b93506115078185602086016119e0565b61151081611b1b565b840191505092915050565b6000611526826118b4565b61153081856118ee565b93506115408185602086016119e0565b61154981611b1b565b840191505092915050565b60006115616025836118ee565b91507f4f6e6c7920746865206f776e65722063616e2063616c6c20746869732066756e60008301527f6374696f6e0000000000000000000000000000000000000000000000000000006020830152604082019050919050565b60006115c76018836118ee565b91507f496e636f7272656374207061796d656e7420616d6f756e7400000000000000006000830152602082019050919050565b60006116076012836118ee565b91507f496e73756666696369656e742066756e647300000000000000000000000000006000830152602082019050919050565b600060c0830160008301516116526000860182611440565b506020830151848203602086015261166a82826114e2565b9150506040830151848203604086015261168482826114e2565b915050606083015161169960608601826116d1565b5060808301516116ac60808601826116d1565b5060a083015184820360a08601526116c482826114e2565b9150508091505092915050565b6116da816119c7565b82525050565b6116e9816119c7565b82525050565b6000602082019050611704600083018461144f565b92915050565b600060c08201905061171f600083018961144f565b8181036020830152611731818861151b565b90508181036040830152611745818761151b565b905061175460608301866116e0565b61176160808301856116e0565b81810360a0830152611773818461151b565b9050979650505050505050565b6000602082019050818103600083015261179a818461145e565b905092915050565b60006020820190506117b760008301846114d3565b92915050565b600060208201905081810360008301526117d681611554565b9050919050565b600060208201905081810360008301526117f6816115ba565b9050919050565b60006020820190508181036000830152611816816115fa565b9050919050565b600060208201905061183260008301846116e0565b92915050565b6000604051905081810181811067ffffffffffffffff8211171561185f5761185e611aec565b5b8060405250919050565b600067ffffffffffffffff82111561188457611883611aec565b5b601f19601f8301169050602081019050919050565b6000819050602082019050919050565b600081519050919050565b600081519050919050565b6000602082019050919050565b600082825260208201905092915050565b600082825260208201905092915050565b600082825260208201905092915050565b600061190a826119c7565b9150611915836119c7565b9250827fffffffffffffffffffffffffffffffffffffffffffffffffffffffffffffffff0382111561194a57611949611a8e565b5b828201905092915050565b6000611960826119c7565b915061196b836119c7565b92508282101561197e5761197d611a8e565b5b828203905092915050565b6000611994826119a7565b9050919050565b60008115159050919050565b600073ffffffffffffffffffffffffffffffffffffffff82169050919050565b6000819050919050565b82818337600083830152505050565b60005b838110156119fe5780820151818401526020810190506119e3565b83811115611a0d576000848401525b50505050565b60006002820490506001821680611a2b57607f821691505b60208210811415611a3f57611a3e611abd565b5b50919050565b6000611a50826119c7565b91507fffffffffffffffffffffffffffffffffffffffffffffffffffffffffffffffff821415611a8357611a82611a8e565b5b600182019050919050565b7f4e487b7100000000000000000000000000000000000000000000000000000000600052601160045260246000fd5b7f4e487b7100000000000000000000000000000000000000000000000000000000600052602260045260246000fd5b7f4e487b7100000000000000000000000000000000000000000000000000000000600052604160045260246000fd5b6000601f19601f8301169050919050565b611b3581611989565b8114611b4057600080fd5b50565b611b4c816119c7565b8114611b5757600080fd5b5056fea264697066735822122093acd77b277db864ff90ae4044cd20fc8f9d43a489240403789fc2ee6e2ae5e164736f6c63430008000033",
  "immutableReferences": {},
  "source": "// SPDX-License-Identifier: MIT\r\npragma solidity 0.8.0;\r\n\r\ncontract CoffeeShop {\r\n    uint public totalFunds;\r\n\r\n    receive() external payable {\r\n        totalFunds += msg.value;\r\n    }\r\n\r\n    address public owner;\r\n\r\n    constructor() {\r\n        owner = msg.sender;\r\n    }\r\n\r\n    modifier onlyOwner() {\r\n        require(msg.sender == owner, \"Only the owner can call this function\");\r\n        _;\r\n    }\r\n\r\n    // check if the caller is the owner\r\n    function isOwner(address account) public view returns (bool) {\r\n        return account == owner;\r\n    }\r\n\r\n    function withdrawFunds(uint amount) public onlyOwner {\r\n        require(amount <= totalFunds, \"Insufficient funds\");\r\n        payable(msg.sender).transfer(amount);\r\n        totalFunds -= amount;\r\n    }\r\n\r\n    function getBalance() public view onlyOwner returns (uint) {\r\n        return totalFunds;\r\n    }\r\n\r\n    // get user balance\r\n    function getUserBalance() public view returns (uint) {\r\n        return msg.sender.balance;\r\n    }\r\n\r\n    struct Order {\r\n        address customer;\r\n        string coffeeName;\r\n        string image;\r\n        uint price;\r\n        uint quantity;\r\n        string status;\r\n    }\r\n\r\n    Order[] public orders;\r\n\r\n    function orderCoffee(\r\n        string memory coffeeName,\r\n        string memory image,\r\n        uint price,\r\n        uint quantity,\r\n        string memory status\r\n    ) public payable {\r\n        require(msg.value == price, \"Incorrect payment amount\");\r\n\r\n        Order memory order = Order(\r\n            msg.sender,\r\n            coffeeName,\r\n            image,\r\n            price,\r\n            quantity,\r\n            status\r\n        );\r\n        orders.push(order);\r\n\r\n        // use the recieve method to store the payment\r\n        totalFunds += msg.value;\r\n    }\r\n\r\n    // change order status\r\n    function changeOrderStatus(uint index) public onlyOwner {\r\n        orders[index].status = \"Completed\";\r\n    }\r\n\r\n    function getOrdersCount() public view returns (uint) {\r\n        return orders.length;\r\n    }\r\n\r\n    // get orders\r\n    function getOrders() public view returns (Order[] memory) {\r\n        return orders;\r\n    }\r\n\r\n    // get user orders\r\n    function getUserOrders(\r\n        address account\r\n    ) public view returns (Order[] memory) {\r\n        uint userOrderCount = 0;\r\n        for (uint i = 0; i < orders.length; i++) {\r\n            if (orders[i].customer == account) {\r\n                userOrderCount++;\r\n            }\r\n        }\r\n\r\n        Order[] memory userOrders = new Order[](userOrderCount);\r\n        uint index = 0;\r\n        for (uint i = 0; i < orders.length; i++) {\r\n            if (orders[i].customer == account) {\r\n                userOrders[index] = orders[i];\r\n                index++;\r\n            }\r\n        }\r\n\r\n        return userOrders;\r\n    }\r\n}\r\n",
  "sourcePath": "C:\\Users\\Manelisi Mpotulo\\Documents\\web projects\\coffee-shop-dapp\\contracts\\CoffeShop.sol",
  "compiler": {
    "name": "solc",
    "version": "0.8.0+commit.c7dfd78e.Emscripten.clang"
  },
  "schemaVersion": "3.4.16",
  "updatedAt": "2024-06-08T15:26:46.540Z",
  "networkType": "ethereum",
  "devdoc": {
    "kind": "dev",
    "methods": {},
    "version": 1
  },
  "userdoc": {
    "kind": "user",
    "methods": {},
    "version": 1
  }
}